:1000000023C032C0C3C130C02FC02EC02DC02CC0F1
:100010002BC02AC0E5C028C027C026C025C0C20109
:1000200096001E0032001E0032001E003C00280018
:1000300002010102030202030103030101000001A6
:10004000030000030002020011241FBECFE5D2E02E
:10005000DEBFCDBF20E0A0E6B0E001C01D92A13719
:10006000B207E1F794D1BDC2CBCF2FB7F8948091FE
:100070006D0090916E002FBF08959C019FB7F8947A
:100080003093700020936F009FBF08950F931F93CC
:10009000CF93DF93EC01E9DF8C01E7DF801B910B4D
:1000A0008C179D07D0F3DF91CF911F910F91089589
:1000B0002FB7F89490936B0080936A006093690067
:1000C00010926800FC018591949190936700809351
:1000D0006600C49A2FBF089587B3807F87BB88B31B
:1000E000807F88BBBC9AC49882E08ABD83E083BFCE
:1000F0008CE789BD88B7806188BF89B7806189BF77
:10010000089589B78F7E89BF1092700010926F009A
:10011000C498BC9A1092690087B3807F87BB88B36C
:100120008F6088BB8CE085BB8AB780628ABF8BB743
:1001300080628BBF85B7877E806185BFF89485B765
:10014000806285BF7894889585B78F7D85BF8BB792
:100150008F7D8BBF15BAE3E6F0E011828EE18283DA
:100160001082E0E6F0E0118282831082B5CFCF9258
:10017000DF92EF92FF920F931F93CF93DF936C0167
:10018000D62F7A018901C0E0C60177DFC7017EDF83
:1001900090E080E072DFC80179DFCF5FDC13F4CF3D
:1001A000DF91CF911F910F91FF90EF90DF90CF9053
:1001B0000895FC018181662341F0882319F01182A2
:1001C00081E080838EE182830895811108C082815D
:1001D000833010F08250F7CF128281E0818308953E
:1001E0001F920F920FB60F9211242F933F934F93AC
:1001F0005F936F937F938F939F93AF93BF93CF93AF
:10020000DF93EF93FF9387B3807F87BB88B3807FB3
:1002100088BB80916C0080FF93C0C39A8AE18A9565
:10022000F1F700C066B3C39863FB662760F981E00D
:10023000682783E690E0BDDF90916C009F5F93702C
:1002400090936C00C0916F00D091700050E040E03E
:1002500060E0A1E0B0E09D01042E02C0220F331F38
:100260000A94E2F72C233D23232B99F09A01220FC5
:10027000331FF901E05DFF4FE4919E130AC0F901BD
:10028000EF5CFF4FE4919D0101C0220FEA95EAF770
:10029000622B4F5F5F4F4C305105E9F66623C9F082
:1002A00028B3207F41E050E0FA0102C0EE0FFF1FAB
:1002B0009A95E2F7CF01922F982B98BB87B3909134
:1002C0006C0001C0440F9A95EAF7807F842B862B3F
:1002D00087BB80916D0090916E00019690936E00A7
:1002E00080936D00809169008823B9F08091660049
:1002F0009091670001979093670080936600892B27
:1003000061F4809168008F5F80936800909169002C
:10031000891728F110926900C498FF91EF91DF913D
:10032000CF91BF91AF919F918F917F916F915F918D
:100330004F913F912F910F900FBE0F901F901895E6
:10034000C29AEAE1EA95F1F700C066B3C29862FB8F
:10035000662760F981E0682780E690E06CCFE09145
:100360006A00F0916B008091680090E0880F991FFF
:10037000E80FF91F85919491909367008093660030
:100380008091680080FDC8CFC49AC7CF189580E8D7
:1003900086BD16BC8BE080BD10926C001092700080
:1003A00010926F0081E0809364008093610094DE7E
:1003B0007894D0E0C0E001E010E0C8010C2E02C04B
:1003C000880F991F0A94E2F758DE88E790E05EDE16
:1003D0002196CC30D10589F790E080E04EDE61E0D7
:1003E0008EE290E065DE8CE291E050DE9CE0892EAA
:1003F000912C55245394EE24E394F12C35E0632E94
:10040000712C4CE0442E31DE8C015C016C01212CFE
:10041000312C2BDEEC01801B910B8639910538F0D5
:10042000832D90E00196B401C8D0382E8E01CE0104
:100430008C199D098E35914010F025246E01C7015D
:10044000032C02C0880F991F0A94E2F7822915DE57
:100450009FB7F89480916000109260009FBF811157
:1004600014C09FB7F89480916300109263009FBFFF
:1004700081115E01CA19DB09C033D54750F241DE54
:10048000F4DD8C015C016C01C4CFEFDD5C0161E047
:100490008CE290E00DDE80E490E0EFDD8FB7F89421
:1004A00090916300109263008FBF650186E0382E43
:1004B0000CED10E0DADDEC018A199B098017910739
:1004C00078F0832D90E00196B40177D0382E970113
:1004D00002C0220F331F8A95E2F7C901CEDD5E010B
:1004E0009FB7F89480916300109263009FBF8823A8
:1004F00009F452C036E0842D8319331508F0832D9A
:10050000811129C065E082E290E0D2DD2CE330E089
:100510004CE350E063E081E090E029DEC801B301E4
:100520004CD0061B170B0D32110510F40DE210E034
:100530008FB7F89490916300109263008FBFC7014A
:10054000032C02C0880F991F0A94E2F796DD8DDD17
:100550005C016C01AFCF61E0813099F480E290E002
:10056000A7DD26E930E046E950E062E0C70102C0BD
:10057000880F991F3A94E2F7FADD90E080E07DDD84
:1005800042CF8EE190E094DD26E930E046E950E08C
:1005900063E08FEF9FE0F0CF9FB7F8948091600009
:1005A000109260009FBF81116E01CC19DD09C0332C
:1005B000D54708F47FCFA5DD26CFAA1BBB1B51E191
:1005C00007C0AA1FBB1FA617B70710F0A61BB70BC3
:1005D000881F991F5A95A9F780959095BC01CD0168
:0605E0000895F894FFCF1E
:00000001FF
