:1000000023C032C0CDC130C02FC02EC02DC02CC0E7
:100010002BC02AC001C128C027C026C025C0C201EC
:1000200096001E0032001E0032001E003C00280018
:1000300002010102030202030103030101000001A6
:10004000030000030002020011241FBECFE5D2E02E
:10005000DEBFCDBF20E0A0E6B0E001C01D92A13719
:10006000B207E1F79ED1C9C2CBCF2FB7F8948091E8
:100070006D0090916E002FBF08959C019FB7F8947A
:100080003093700020936F009FBF08950F931F93CC
:10009000CF93DF93EC01E9DF8C01E7DF801B910B4D
:1000A0008C179D07D0F3DF91CF911F910F91089589
:1000B0002FB7F89490936B0080936A006093690067
:1000C00010926800FC018591949190936700809351
:1000D0006600C49A2FBF089587B3807F87BB88B31B
:1000E000807F88BBBC9AC49882E08ABD83E083BFCE
:1000F0008CE789BD88B7806188BF89B7806189BF77
:10010000089589B78F7E89BF1092700010926F009A
:10011000C498BC9A1092690087B3807F87BB88B36C
:100120008F6088BB37988CE085BB8AB780628ABFB6
:100130008BB780628BBF85B7877E806185BFF8945F
:1001400085B7806285BF7894889585B78F7D85BF98
:100150008BB78F7D8BBF15BA379AE3E6F0E011823B
:100160008EE182831082E0E6F0E0118282831082C9
:10017000B3CFCF92DF92EF92FF920F931F93CF9363
:10018000DF936C01D62F7A018901C0E0C60175DFCB
:10019000C7017CDF90E080E070DFC80177DFCF5FD0
:1001A000DC13F4CFDF91CF911F910F91FF90EF906F
:1001B000DF90CF90089591E2883009F493E297B9E7
:1001C00098B3982B98BB9AE19A95F1F700C0369AAC
:1001D0003699FECF95B128B38095822388BB892FAD
:1001E0008095881F8827881F0895FC0181816623D8
:1001F00041F0882319F0118281E080838EE18283AF
:100200000895811108C08281833010F08250F7CFA9
:10021000128281E0818308951F920F920FB60F9290
:1002200011242F933F934F935F936F937F938F93FB
:100230009F93AF93BF93CF93DF93EF93FF9387B3D6
:10024000807F87BB88B3807F88BB80916C0080FFF4
:100250008AC088E0B0DF682F83E690E0C6DF909127
:100260006C009F5F937090936C00C0916F00D09171
:10027000700050E040E060E0A1E0B0E09D01042E9D
:1002800002C0220F331F0A94E2F72C233D23232BB5
:1002900099F09A01220F331FF901E05DFF4FE491BD
:1002A0009E130AC0F901EF5CFF4FE4919D0101C06C
:1002B000220FEA95EAF7622B4F5F5F4F4C305105F2
:1002C000E9F66623C9F028B3207F41E050E0FA0147
:1002D00002C0EE0FFF1F9A95E2F7CF01922F982BE5
:1002E00098BB87B390916C0001C0440F9A95EAF7D0
:1002F000807F842B862B87BB80916D0090916E0050
:10030000019690936E0080936D0080916900882320
:10031000B9F0809166009091670001979093670013
:1003200080936600892B61F4809168008F5F8093D1
:100330006800909169008917E0F010926900C498F4
:10034000FF91EF91DF91CF91BF91AF919F918F91ED
:100350007F916F915F914F913F912F910F900FBEC1
:100360000F901F90189584E026DF682F80E690E0BC
:1003700075CFE0916A00F0916B008091680090E089
:10038000880F991FE80FF91F85919491909367004A
:10039000809366008091680080FDD1CFC49AD0CF51
:1003A000189580E886BD16BC8AE080BD84E886B9D1
:1003B00010926C001092700010926F0081E0809398
:1003C00064008093610088DE7894D0E0C0E001E0B2
:1003D00010E0C8010C2E02C0880F991F0A94E2F7A2
:1003E0004CDE88E790E052DE2196CC30D10589F7CB
:1003F00090E080E042DE61E08EE290E059DE8CE247
:1004000091E044DE9CE0892E912C55245394EE24F7
:10041000E394F12C35E0632E712C4CE0442E25DE64
:100420008C015C016C01212C312C1FDEEC01801B46
:10043000910B8639910538F0832D90E00196B40137
:10044000C8D0382E8E01CE018C199D098E35914071
:1004500010F025246E01C701032C02C0880F991FDC
:100460000A94E2F7822909DE9FB7F8948091600030
:10047000109260009FBF811114C09FB7F8948091C3
:100480006300109263009FBF81115E01CA19DB09EE
:10049000C033D54750F235DEE8DD8C015C016C01DC
:1004A000C4CFE3DD5C0161E08CE290E001DE80E43A
:1004B00090E0E3DD8FB7F8949091630010926300B1
:1004C0008FBF650186E0382E0CED10E0CEDDEC012B
:1004D0008A199B098017910778F0832D90E0019687
:1004E000B40177D0382E970102C0220F331F8A95AE
:1004F000E2F7C901C2DD5E019FB7F8948091630005
:10050000109263009FBF882309F452C036E0842D07
:100510008319331508F0832D811129C065E082E22B
:1005200090E0C6DD2CE330E04CE350E063E081E096
:1005300090E01FDEC801B3014CD0061B170B0D3233
:10054000110510F40DE210E08FB7F894909163005C
:10055000109263008FBFC701032C02C0880F991F40
:100560000A94E2F78ADD81DD5C016C01AFCF61E0C6
:10057000813099F480E290E09BDD26E930E046E9A5
:1005800050E062E0C70102C0880F991F3A94E2F779
:10059000F0DD90E080E071DD42CF8EE190E088DD1B
:1005A00026E930E046E950E063E08FEF9FE0F0CFCE
:1005B0009FB7F89480916000109260009FBF8111F6
:1005C0006E01CC19DD09C033D54708F47FCF99DD22
:1005D00026CFAA1BBB1B51E107C0AA1FBB1FA61732
:1005E000B70710F0A61BB70B881F991F5A95A9F7DC
:0E05F00080959095BC01CD010895F894FFCF41
:00000001FF
